:100000000C9462000C947F000C947F000C947F0091
:100010000C947F000C947F000C947F000C947F0064
:100020000C947F000C947F000C94FD020C947F00D4
:100030000C947F000C947F000C947F000C947F0044
:100040000C947F000C947F000C947F000C947F0034
:100050000C947F000802FB01FB01FB01FB01FB018B
:10006000FB0167021B022E02410254028D027A023A
:10007000FB01FB01A002FB01FB01FB01FB01FB01FA
:10008000FB01B902A502AA02AF02B402C502BE0278
:10009000FB01FB01CA02FB01FB01FB01FB01FB01B0
:1000A000FB01E302CF02D402D902DE02EF02E80232
:1000B000FB01FB01FB01FB01FB01FB01FB01FB0160
:1000C000FB01F40211241FBECFE5D8E0DEBFCDBF97
:1000D00010E0A0E6B0E0E6EBF9E002C005900D927A
:1000E000A236B107D9F720E0A2E6B0E001C01D9228
:1000F000A636B207E1F70E94D4010C94D9040C94FF
:1001000000003E9A3F9A379A329A319A0895369A69
:10011000349BFECF349A84B125B190E0922B0895A0
:10012000823419F118F4813439F008958334B1F12F
:10013000843409F44CC00895413059F42AB381E065
:1001400090E002C0880F991F6A95E2F7822B8ABB64
:1001500008952AB381E090E002C0880F991F6A9544
:10016000E2F7809582238ABB0895413059F427B382
:1001700081E090E002C0880F991F6A95E2F7822B18
:1001800087BB089527B381E090E002C0880F991FD4
:100190006A95E2F78095822387BB0895413059F430
:1001A00024B381E090E002C0880F991F6A95E2F7BE
:1001B000822B84BB089524B381E090E002C0880FB5
:1001C000991F6A95E2F78095822384BB0895413098
:1001D00059F421B381E090E002C0880F991F6A951D
:1001E000E2F7822B81BB089521B381E090E002C049
:1001F000880F991F6A95E2F78095822381BB089545
:10020000823419F118F4813439F008958334B1F14E
:10021000843409F44CC00895413059F42BB381E083
:1002200090E002C0880F991F6A95E2F7822B8BBB82
:1002300008952BB381E090E002C0880F991F6A9562
:10024000E2F7809582238BBB0895413059F428B39F
:1002500081E090E002C0880F991F6A95E2F7822B37
:1002600088BB089528B381E090E002C0880F991FF1
:100270006A95E2F78095822388BB0895413059F44E
:1002800025B381E090E002C0880F991F6A95E2F7DC
:10029000822B85BB089525B381E090E002C0880FD2
:1002A000991F6A95E2F78095822385BB08954130B6
:1002B00059F422B381E090E002C0880F991F6A953B
:1002C000E2F7822B82BB089522B381E090E002C066
:1002D000880F991F6A95E2F78095822382BB089563
:1002E0008234D9F018F4813431F04DC0833439F1BF
:1002F0008434B9F148C029B381E090E0062E02C0F1
:10030000880F991F0A94E2F730E08223932302C0FA
:10031000959587956A95E2F7089526B381E090E078
:10032000062E02C0880F991F0A94E2F730E082235C
:10033000932302C0959587956A95E2F7089523B3B4
:1003400081E090E0062E02C0880F991F0A94E2F720
:1003500030E08223932302C0959587956A95E2F752
:10036000089520B381E090E0062E02C0880F991F07
:100370000A94E2F730E08223932302C09595879593
:100380006A95E2F7089580E0089541E00E949000A8
:10039000089541E00E940001089540E00E9400019C
:1003A00008950E94700108950E9481000E948903AF
:1003B0000E94810362E084E40E94C50163E084E45A
:1003C0000E94C50160E083E40E94C50164E084E40A
:1003D0000E94C50165E084E40E94C50166E084E4F2
:1003E0000E94C50167E084E40E94C50161E084E4E5
:1003F0000E94C501CFEF8FEF0E94840390E0FC01C3
:100400003997E833F105B8F7E65DFF4F0C94D30454
:1004100060E083E40E94D101882341F060E083E43E
:100420000E94D101813019F4C1E001C0C0E08C2FDD
:100430000E948403E0CF64E084E40E94D101882319
:1004400041F064E084E40E94D101813019F4C1E0FC
:1004500001C0C0E08C2F0E948403CDCF65E084E40E
:100460000E94D101882341F065E084E40E94D1011B
:10047000813019F4C1E001C0C0E08C2F0E948403D8
:10048000BACF66E084E40E94D101882341F066E09F
:1004900084E40E94D101813019F4C1E001C0C0E0C0
:1004A0008C2F0E948403A7CF67E084E40E94D101CF
:1004B000882341F067E084E40E94D101813019F47F
:1004C000C1E001C0C0E08C2F0E94840394CF61E0A2
:1004D00084E40E94D101882341F061E084E40E9419
:1004E000D101813019F4C1E001C0C0E08C2F0E941D
:1004F000840381CF62E084E40E94D101882341F02B
:1005000062E084E40E94D101813019F4C1E001C0AD
:10051000C0E08C2F0E9484036ECF63E084E40E94CD
:10052000D101882341F063E084E40E94D10181304D
:1005300019F4C1E001C0C0E08C2F0E9484035BCF9E
:1005400060E083E40E94C90156CF64E084E40E9425
:10055000C90151CF65E084E40E94C9014CCF66E037
:1005600084E40E94C90147CF67E084E40E94C90186
:1005700042CF61E084E40E94C9013DCF0E9489031B
:1005800062E084E40E94C90136CF63E084E40E9403
:10059000C90131CF60E083E40E94CD012CCF64E03B
:1005A00084E40E94CD0127CF65E084E40E94CD0160
:1005B00022CF66E084E40E94CD011DCF67E084E491
:1005C0000E94CD0118CF61E084E40E94CD0113CFD9
:1005D0000E949F0362E084E40E94CD010CCF63E09F
:1005E00084E40E94CD0107CF8FEF0E94840390E046
:1005F0009093610080936000FECE1F920F920FB621
:100600000F9211242F933F934F935F936F937F9398
:100610008F939F93AF93BF93EF93FF93809163006A
:100620008F5F80936300809163008A3008F458C024
:10063000109263000E948700BC0180E090E00E945D
:10064000D80320E030E040E85EE30E9466040E94A8
:10065000A90370936500609364008091600090919D
:1006600061002091640030916500019628173907D8
:1006700040F062E084E40E94C90181E0809362005E
:100680002FC08091600090916100209164003091B2
:10069000650001978217930738F062E084E40E94B6
:1006A000CD01109262001CC0209160003091610069
:1006B00080916400909165002817390789F4809132
:1006C0006200813029F462E084E40E94C90108C01C
:1006D00080916200811104C062E084E40E94CD0137
:1006E000FF91EF91BF91AF919F918F917F916F910A
:1006F0005F914F913F912F910F900FBE0F901F90E0
:100700001895BE9A6E9A08958FB9779BFECF8FB1D8
:1007100008958EE48CBF83B7886083BF83B78F7BD7
:1007200083BF83B7816083BF83B78D7F83BF83B768
:10073000846083BF789489B7826089BF089583B746
:100740008E7F83BF83B78D7F83BF83B78B7F83BF4C
:1007500008950E94450488F09F5798F0B92F992773
:10076000B751B0F0E1F0660F771F881F991F1AF09C
:10077000BA95C9F714C0B13091F00E945F04B1E09E
:1007800008950C945F04672F782F8827B85F39F09D
:10079000B93FCCF3869577956795B395D9F73EF435
:1007A00090958095709561957F4F8F4F9F4F0895DD
:1007B000E89409C097FB3EF49095809570956195FB
:1007C0007F4F8F4F9F4F9923A9F0F92F96E9BB27B1
:1007D0009395F695879577956795B795F111F8CF2D
:1007E000FAF4BB0F11F460FF1BC06F5F7F4F8F4F98
:1007F0009F4F16C0882311F096E911C0772321F08E
:100800009EE8872F762F05C0662371F096E8862F25
:1008100070E060E02AF09A95660F771F881FDAF77C
:10082000880F9695879597F9089597F99F6780E8BF
:1008300070E060E008959FEF80EC089500240A9432
:100840001616170618060906089500240A941216AB
:100850001306140605060895092E0394000C11F4DE
:10086000882352F0BB0F40F4BF2B11F460FF04C08B
:100870006F5F7F4F8F4F9F4F089557FD9058440FE4
:10088000551F59F05F3F71F04795880F97FB991FEF
:1008900061F09F3F79F087950895121613061406AC
:1008A000551FF2CF4695F1DF08C016161706180639
:1008B000991FF1CF86957105610508940895E89414
:1008C000BB2766277727CB0197F908950E94790403
:1008D0000C942C040E941E0438F00E94250420F081
:1008E000952311F00C9415040C941B0411240C9402
:1008F00060040E943D0470F3959FC1F3950F50E092
:10090000551F629FF001729FBB27F00DB11D639FC1
:10091000AA27F00DB11DAA1F649F6627B00DA11D67
:10092000661F829F2227B00DA11D621F739FB00D0D
:10093000A11D621F839FA00D611D221F749F33277D
:10094000A00D611D231F849F600D211D822F762F16
:100950006A2F11249F5750409AF0F1F088234AF0F3
:10096000EE0FFF1FBB1F661F771F881F915050405F
:10097000A9F79E3F510580F00C9415040C94600477
:100980005F3FE4F3983ED4F3869577956795B795E6
:10099000F795E7959F5FC1F7FE2B880F911D969500
:1009A000879597F90895EE0FFF1F0590F491E02DBC
:0609B0000994F894FFCF4A
:0209B600180027
:00000001FF
