:100000000C943E000C945B000C945B000C945B0021
:100010000C945B000C945B000C945B000C945B00F4
:100020000C945B000C945B000C9426090C945B0010
:100030000C945B000C945B000C945B000C945B00D4
:100040000C945B000C945B000C945B000C945B00C4
:100050000C945B00F4064C07120818081E082408CC
:100060002D083608CE073C08EF069707BA09C209E3
:10007000CA09D209DA09E209F109EA0911241FBE05
:10008000CFE5D8E0DEBFCDBF12E0A0E6B0E0E8E10A
:10009000F5E102C005900D92A23AB107D9F722E02E
:1000A000A2EAB2E001C01D92A53AB207E1F70E94B0
:1000B000CC030C948A0A0C940000823419F118F4D1
:1000C000813439F008958334B1F1843409F44CC09B
:1000D0000895413059F42AB381E090E002C0880FBE
:1000E000991F6A95E2F7822B8ABB08952AB381E0B3
:1000F00090E002C0880F991F6A95E2F780958223ED
:100100008ABB0895413059F427B381E090E002C0E2
:10011000880F991F6A95E2F7822B87BB089527B352
:1001200081E090E002C0880F991F6A95E2F7809500
:10013000822387BB0895413059F424B381E090E0D5
:1001400002C0880F991F6A95E2F7822B84BB08953D
:1001500024B381E090E002C0880F991F6A95E2F70E
:100160008095822384BB0895413059F421B381E006
:1001700090E002C0880F991F6A95E2F7822B81BB3D
:10018000089521B381E090E002C0880F991F6A951D
:10019000E2F78095822381BB0895823419F118F427
:1001A000813439F008958334B1F1843409F44CC0BA
:1001B0000895413059F42BB381E090E002C0880FDC
:1001C000991F6A95E2F7822B8BBB08952BB381E0D0
:1001D00090E002C0880F991F6A95E2F7809582230C
:1001E0008BBB0895413059F428B381E090E002C000
:1001F000880F991F6A95E2F7822B88BB089528B370
:1002000081E090E002C0880F991F6A95E2F780951F
:10021000822388BB0895413059F425B381E090E0F2
:1002200002C0880F991F6A95E2F7822B85BB08955B
:1002300025B381E090E002C0880F991F6A95E2F72C
:100240008095822385BB0895413059F422B381E023
:1002500090E002C0880F991F6A95E2F7822B82BB5B
:10026000089522B381E090E002C0880F991F6A953B
:10027000E2F78095822382BB08958234D9F018F486
:10028000813431F04DC0833439F18434B9F148C040
:1002900029B381E090E0062E02C0880F991F0A94CE
:1002A000E2F730E08223932302C0959587956A9503
:1002B000E2F7089526B381E090E0062E02C0880F91
:1002C000991F0A94E2F730E08223932302C09595A8
:1002D00087956A95E2F7089523B381E090E0062EB2
:1002E00002C0880F991F0A94E2F730E0822393231B
:1002F00002C0959587956A95E2F7089520B381E04D
:1003000090E0062E02C0880F991F0A94E2F730E0B1
:100310008223932302C0959587956A95E2F7089505
:1003200080E00895823459F018F4813431F0089552
:10033000833439F0843439F008956BBB089568BB79
:10034000089565BB089562BB0895823461F118F485
:10035000813441F00895833409F446C0843409F4AB
:1003600064C00895413099F480B78B7F80BF2AB371
:1003700081E090E002C0880F991F6A95E2F7982FFC
:10038000909592239ABB9BB3892B8BBB08952BB37B
:1003900081E090E002C0880F991F6A95E2F780958E
:1003A00082238BBB0895413099F480B78B7F80BF47
:1003B00027B381E090E002C0880F991F6A95E2F7A9
:1003C000982F9095922397BB98B3892B88BB08955B
:1003D00028B381E090E002C0880F991F6A95E2F788
:1003E0008095822388BB0895413099F480B78B7F34
:1003F00080BF24B381E090E002C0880F991F6A9506
:10040000E2F7982F9095922394BB95B3892B85BBE7
:10041000089525B381E090E002C0880F991F6A9586
:10042000E2F78095822385BB0895413099F480B727
:100430008B7F80BF21B381E090E002C0880F991FBD
:100440006A95E2F7982F9095922391BB92B3892BEE
:1004500082BB089522B381E090E002C0880F991F0B
:100460006A95E2F78095822382BB0895E199FECFD9
:100470009FBB8EBBE09A8DB30895E199FECF4115E5
:10048000510591F0460F571FFB019C01261B370BAE
:10049000B9019B012E0F3F1F3FBB2EBBE09A9DB3BE
:1004A0009193E417F507A9F70895E199FECF9FBB53
:1004B0008EBBE09A8DB3861719F06DBBE29AE19A74
:1004C000089541155105C9F0460F571FFB019C01C6
:1004D000261B370BB901E199FECF9B012E0F3F1F61
:1004E0003FBB2EBBE09A2DB39191291719F09DBB0C
:1004F000E29AE19AE417F50771F7089541E060E0A8
:1005000084E40E945D0041E061E084E40E945D00BB
:1005100041E062E084E40E945D0041E063E084E445
:100520000E945D0040E064E084E40E945D0040E0E1
:1005300065E084E40E945D0040E066E084E40E949F
:100540005D0040E067E084E40E945D0041E064E01B
:1005500084E40E94A50141E065E084E40E94A501D5
:1005600041E066E084E40E94A50141E067E084E4A4
:100570000E94A5010895EF92FF920F931F93CF93CE
:10058000DF93CDB7DEB760970FB6F894DEBF0FBE2E
:10059000CDBF80E1E0E6F0E0DE01119601900D9222
:1005A0008A95E1F7E12CF12C0FEF41E060E084E463
:1005B0000E94CD0041E061E084E40E94CD0041E072
:1005C00062E084E40E94CD0041E063E084E40E94A4
:1005D000CD008FE39CE90197F1F700C0000040E0F7
:1005E0006E2D84E40E94CD0010E064E0610F84E48D
:1005F0000E943D0181110FC0F701EE0FFF1FEE0FAA
:10060000FF1F81E090E08C0F9D1FE80FF91FE10FA5
:10061000F11D008103C01F5F143039F79FEFE91A05
:10062000F90A84E0E816F10409F0BFCF802F609644
:100630000FB6F894DEBF0FBECDBFDF91CF911F91F3
:100640000F91FF90EF90089541E060E082E40E94F6
:10065000CD008FE99FE00197F1F700C0000040E076
:1006600060E082E40E94CD008FE99FE00197F1F7FE
:1006700000C000000895682F81E40E94920140E0CC
:1006800061E082E40E94CD000E942403089541E0CD
:1006900060E081E40E945D0041E061E081E40E944D
:1006A0005D0041E062E081E40E945D0041E063E0C2
:1006B00081E40E945D0041E064E081E40E945D000D
:1006C00041E065E081E40E945D0041E066E081E494
:1006D0000E945D0041E067E081E40E945D0041E02E
:1006E00060E082E40E945D0041E062E082E40E94FA
:1006F0005D0041E061E082E40E945D0040E062E074
:1007000082E40E94CD0088E30E943B0381E00E94C6
:100710003B038EE00E943B038FE19EE40197F1F7DB
:1007200000C000000895682F81E40E94920141E01A
:1007300061E082E40E94CD000E9424030895CF93DB
:10074000DF93EC018881882331F021960E94930386
:1007500089918111FBCFDF91CF91089581E00E94B3
:100760003B030895813019F48FE7860F06C082306D
:1007700019F48FEB860F01C080E80E943B030895B7
:1007800041E00E945D00089541E00E94CD0008957F
:1007900040E00E94CD000895CF93DF93CDB7DEB740
:1007A00028970FB6F894DEBF0FBECDBF60E083E49C
:1007B0000E94C00361E083E40E94C00362E083E41E
:1007C0000E94C0030E9447030E947E020E94580AB2
:1007D00080E790E00E949F0361E082E00E94B20304
:1007E00081E890E00E949F032FEF39E688E12150D5
:1007F00030408040E1F700C000000E94AE0380E07E
:1008000091E00E943602813039F481E091E00E944B
:100810003602813009F4CAC08DE890E00E949F033F
:1008200061E082E00E94B20387E990E00E949F03AA
:100830009FEFE9E6F8E19150E040F040E1F700C0B9
:1008400000000E94AE0382EA90E00E949F0361E0F4
:1008500082E00E94B20381EB90E00E949F038FEF41
:1008600089838A838B838C839E012F5F3F4F79011D
:1008700069011CE00E94BB028F3FE1F3F601819306
:100880006F010E949303FFEF22E537E0F150204013
:100890003040E1F700C00000612F82E00E94B20307
:1008A0008AE20E9493038FEF90E7E2E0815090404C
:1008B000E040E1F700C000001F5F1031D9F644E0CE
:1008C00050E0BE016F5F7F4F82E091E00E946102C5
:1008D00061E080E091E00E9455020E94AE038DEB42
:1008E00090E00E949F03FFEF24E33CE0F1502040A2
:1008F0003040E1F700C000000E94AE0388EC90E0B9
:100900000E949F0361E082E00E94B20387ED90E0C5
:100910000E949F031CE00E94BB028F3FE1F3F7019E
:1009200081937F010E949303FFEF22E537E0F150AE
:1009300020403040E1F700C00000612F82E00E94BB
:10094000B2038AE20E9493038FEF90E7E2E08150C6
:100950009040E040E1F700C000001F5F1031D9F681
:1009600044E050E0BE016F5F7F4F86E091E00E945F
:10097000610261E081E091E00E9455020E94AE03B5
:100980008DEB90E00E949F03FFEF24E33CE0F150E9
:1009900020403040E1F700C000000E94AE0360E05C
:1009A0008AE091E00E945502C12C05C08AE091E0E6
:1009B0000E943602C82E10E022242A940F2EF2E361
:1009C0003F2EF02DE22C0F2EFBE0DF2EF02D0F2E10
:1009D000FAE07F2EF02D8091A202813001F50E9475
:1009E0007A0A1092A4021092A3021092A20261E06D
:1009F00083E40E94C80360E083E40E94C8030E946D
:100A0000AE0383EE90E00E949F038FEF99E6E8E14A
:100A100081509040E040E1F700C0000002C0111199
:100A2000B8C1B12C022DF1E0CF1227C00E94AE0355
:100A300083EF90E00E949F0361E082E00E94B20396
:100A400081E091E00E949F0362E083E40E94C4037E
:100A50002AEA36EE86E991E021503040804090400D
:100A6000D9F7000062E083E40E94C80360E08AE0F6
:100A700091E00E945502B12CC12C0E94AE0381E18D
:100A800091E00E949F0361E082E00E94B2038FE147
:100A900091E00E949F030F3F29F40E94BB02082FA0
:100AA0008F3FD9F380ED800F823088F00E94AE0333
:100AB0008FE291E00E949F03EFEFF9E628E1E15019
:100AC000F0402040E1F700C000000E2DACCFED82D9
:100AD000EE82EF82E886E982EA82EB82EC820033E2
:100AE00021F0013309F4A9C050C1A32CAB180E9416
:100AF000AE038CE391E00E949F0361E082E00E94DC
:100B0000B20387E491E00E949F033FEF81EE94E0FF
:100B1000315080409040E1F700C000008E010B5F33
:100B20001F4F0F2EFCE0FF2EF02D0E94BB028F3FC7
:100B3000E1F3F80181938F010E949303FFEF22E517
:100B400037E0F15020403040E1F700C000006F2D49
:100B500082E00E94B2038AE20E9493038FEF90E743
:100B6000E2E081509040E040E1F700C00000F394E3
:100B7000F0E1FF12DACF44E050E0BE016F5F7F4F3B
:100B800082E091E00E943D0244E0BE016F5F7F4F32
:100B9000CE0105960E943D09813019F50E94AE03F1
:100BA00083E591E00E949F0361E082E00E94B2032E
:100BB0008CE391E00E949F032FEF34E38CE02150FF
:100BC00030408040E1F700C0000060E083E40E9414
:100BD000C4030E94640A0E94AE03B12C0E2D11E0E2
:100BE000D5C0B3940E94AE038EE591E00E949F03AE
:100BF00061E082E00E94B20389E691E00E949F03D7
:100C00008A2D0E9493039FEFE9E6F8E19150E040BE
:100C1000F040E1F700C000000E94AE03AA9422E079
:100C20002B1508F064CF61E08AE091E00E94550244
:100C30000E2DCC24C39410E0A9C0A32CAB180E94A5
:100C4000AE0385E791E00E949F0361E082E00E948D
:100C5000B20380E891E00E949F033FEF81EE94E0B1
:100C6000315080409040E1F700C000008E010B5FE2
:100C70001F4F0F2EFCE0FF2EF02D0E94BB028F3F76
:100C8000E1F3F80181938F010E949303FFEF22E5C6
:100C900037E0F15020403040E1F700C000006F2DF8
:100CA00082E00E94B2038AE20E9493038FEF90E7F2
:100CB000E2E081509040E040E1F700C00000F39492
:100CC000F0E1FF12DACF44E050E0BE016F5F7F4FEA
:100CD00086E091E00E943D0244E0BE016F5F7F4FDD
:100CE000CE0105960E943D09813019F50E94AE03A0
:100CF00083E591E00E949F0361E082E00E94B203DD
:100D000085E791E00E949F032FEF34E38CE02150B0
:100D100030408040E1F700C0000061E083E40E94C1
:100D2000C4030E94640A0E94AE03B12C0E2D12E08F
:100D30002DC0B3940E94AE038CE891E00E949F0303
:100D400061E082E00E94B20389E691E00E949F0385
:100D50008A2D0E9493039FEFE9E6F8E19150E0406D
:100D6000F040E1F700C000000E94AE03AA9422E028
:100D70002B1508F064CF61E08AE091E00E945502F3
:100D80000E2DCC24C39410E001C010E0112309F40F
:100D90004ACE01E00F2EF7E08F2EF02D6894442408
:100DA00043F80F2EF6E0AF2EF02D0F2EF3E09F2E1E
:100DB000F02D6894662462F80F2EF5E05F2EF02D7A
:100DC0000F2EF9E0BF2EF02DFEC1FA013197EC3065
:100DD000F10508F0FCC1E65DFF4F0C94840A8823FE
:100DE00009F450C10B2DEFC10E94AE0387E991E0D9
:100DF0000E949F0361E082E00E94B203113029F457
:100E000087EA91E00E949F0306C0123021F487EB2D
:100E100091E00E949F03812F0E945F09F82E3FEF0F
:100E200080E792E0315080409040E1F700C0000040
:100E3000E1E3FE1609F4CFC1F2E3FF1609F4CDC1D8
:100E400023E3F21609F4CBC134E3F31207C01230E6
:100E500009F4C7C1113009F0D8C1C5C18FEFF81628
:100E6000A1F00E94AE0387EC91E00E949F039FEFE8
:100E7000E4E3FCE09150E040F040E1F700C0000006
:100E80008FEC8F0D843008F49EC18091A2028823DC
:100E900009F4AACF98C1092F0E94AE0383ED91E017
:100EA0000E949F0361E082E00E94B20386EE91E01F
:100EB0000E949F03812F0E945F09F82E2FEF30E7D9
:100EC00082E0215030408040E1F700C0000091E313
:100ED000F91609F4AAC1E2E3FE1609F486C1F3E3A8
:100EE000FF1609F484C124E3F21609F482C13FEF2E
:100EF000F316A1F00E94AE0387EC91E00E949F03DD
:100F00008FEF94E3ECE081509040E040E1F700C0C7
:100F100000008FEC8F0D843018F455C1902F01C064
:100F2000902F8091A202882309F4B5CF4CC10E9472
:100F3000AE0385EF91E00E949F03812F0E945F091D
:100F4000F82EFFEF20E732E0F15020403040E1F78B
:100F500000C0000081E3F81609F44DC192E3F916D0
:100F600009F44BC1EFEFFE16A1F00E94AE0387EC2F
:100F700091E00E949F03FFEF24E33CE0F15020400A
:100F80003040E1F700C000008FEC8F0D823008F494
:100F90001AC18091A202882351F215C10E94AE03AA
:100FA00087E092E00E949F0361E082E00E94B2032A
:100FB0008AE192E00E949F03812F0E945F09F82E30
:100FC0008FEF90E7E2E081509040E040E1F700C011
:100FD0000000F1E3FF1609F412C122E3F21609F44E
:100FE00010C130E3F31609F40EC18FEFF816A1F02B
:100FF0000E94AE0387EC91E00E949F039FEFE4E321
:10100000FCE09150E040F040E1F700C0000080EDCE
:101010008F0D833008F4D7C08091A202882309F491
:10102000BDCFD1C0612F892D0E947E0901E0CBC0C8
:10103000612F862D0E947E0901E0C5C0612F852D9C
:101040000E947E0901E0BFC0612F8A2D0E947E09A7
:10105000123009F4AFC002E0B6C0612F882D0E94A3
:101060007E09123009F4A8C002E0ADC0612F842DC2
:101070000E947E0902E0A7C0612F872D0E947E0991
:101080000B2DA1C00E94AE038BE292E00E949F0351
:101090008FED0E94930383E40E9493036D2D81E002
:1010A0000E94B2032FEF31EE84E0215030408040A7
:1010B000E1F700C00000812F0E945F099FE7EAE18D
:1010C000F6E09150E040F040E1F700C00000909160
:1010D000A202913009F472C000ED080F0A3080F0CE
:1010E0000E94AE0387EC91E00E949F032FEF34E350
:1010F0008CE0215030408040E1F700C0000053C038
:101100000E949303812F0E945F099FE7EAE1F6E0C6
:101110009150E040F040E1F700C000009091A20241
:10112000913009F44DC00F2EF0EDFF2EF02DF80E8A
:1011300029E02F1580F40E94AE0387EC91E00E9415
:101140009F033FEF84E39CE0315080409040E1F703
:1011500000C0000028C00E949303000F802F880F5A
:10116000880F080FF00E80E40E945F0AEFEFF1EEA7
:1011700024E0E150F0402040E1F700C000008F2D56
:101180000E945F0A0E94AE0389E392E00E949F03DF
:101190003FEF84E39CE0315080409040E1F700C095
:1011A0000000F1100FC08091A202882309F46ACFD9
:1011B0000B2D09C001E007C001E005C00B2D03C0E5
:1011C0000B2D01C00B2D8091A202402F50E08130E9
:1011D00009F0FBCD00CC092DF6CF062DF4CF052D5F
:1011E000F2CF0A2DF0CF02E0EECF082DECCF042D88
:1011F000EACF0CE0E8CF0B2DE6CF02E0E4CF0D2DD7
:10120000E2CF072DE0CF02E0DECF0E94AE0387ECF5
:1012100091E00E949F03EFEFF4E32CE0E150F040F7
:101220002040E1F700C00000CECF0E94AE0387EC63
:1012300091E00E949F033FEF84E39CE031508040A7
:101240009040E1F700C000000A2DBDCF1F920F9221
:101250000FB60F9211248F939F938091A3029091C8
:10126000A40201969093A4028093A3029F918F9170
:101270000F900FBE0F901F9018954423D1F0FC01E2
:101280003081FB012081321316C0FC013196DB0155
:101290001196415050E04F5F5F4F480F591F04C0F7
:1012A00021919D91291309C0E417F507C9F781E041
:1012B000089581E0089580E0089580E00895CF9337
:1012C000C82F8091A3029091A402883B9B4010F00C
:1012D000C13049F08091A3029091A402803D9740D3
:1012E00038F0C23029F481E08093A2028FEF04C06D
:1012F0000E94BB028F3F29F3CF9108954F925F92D6
:101300006F927F928F929F92AF92BF92CF92DF9215
:10131000EF92FF920F931F93CF93DF93B62E00E0CF
:1013200010E0D0E0C82ED12C0F2EF6E14F2EF02D7C
:101330000F2EF5E15F2EF02D6894662464F80F2ED1
:10134000F4E17F2EF02D0F2EF3E18F2EF02D0F2ED6
:10135000F2E19F2EF02D0F2EF1E1AF2EF02D0E9425
:10136000AE03F6013397E830F105D8F5EA5CFF4F9C
:101370000C94840A8AE492E00E949F0301E311E244
:10138000DA2D2FC083E592E00E949F0302E312E270
:10139000D92D27C08CE592E00E949F0303E313E25E
:1013A000D82D1FC085E692E00E949F0304E314E25B
:1013B000D72D17C08EE692E00E949F0300E310E253
:1013C000D62D0FC087E792E00E949F0305E315E248
:1013D000D52D07C08DE792E00E949F0306E316E239
:1013E000D42D8D2F0E945F0A2FEF80E792E02150CD
:1013F00080409040E1F700C000008FEF0E945F0A3C
:10140000813029F48AE892E00E949F0304C08DE8AD
:1014100092E00E949F0361E082E00E94B20381E9B2
:1014200092E00E949F038B2D0E945F09C82F2FEF2F
:1014300080E792E0215080409040E1F700C000003A
:10144000C13321F4812F0E945F0A21C0C23321F4ED
:10145000802F0E945F0A1BC0CF3FA1F0C033B9F0BC
:101460000E94AE0387EC91E00E949F032FEF84E37C
:101470009CE0215080409040E1F700C00000C05344
:10148000C33028F08091A202882309F468CFDF914D
:10149000CF911F910F91FF90EF90DF90CF90BF9071
:1014A000AF909F908F907F906F905F904F90089536
:1014B00087B3806B87BB8DB181658DB908958FB976
:1014C000779BFECF8FB108958EE48CBF83B7886081
:1014D00083BF83B78F7B83BF83B7816083BF83B7AD
:1014E0008D7F83BF83B7846083BF789489B7826020
:1014F00089BF089583B78E7F83BF83B78D7F83BFF6
:1015000083B78B7F83BF0895EE0FFF1F0590F49183
:08151000E02D0994F894FFCFCF
:101518003738392F3435362A3132332D41303D2B87
:1015280057656C636F6D6520746F20736D6172749D
:1015380000686F6D652073797374656D004C6F6713
:10154800696E20666F720066697273742074696DC3
:1015580065005365742041646D696E207061737312
:101568000041646D696E20706173733A0050617355
:1015780073205361766564005365742047756573FD
:1015880074205061737300477565737420506173DC
:10159800733A0053657373696F6E2054696D656F94
:1015A8007574004C6F67696E20626C6F636B65645D
:1015B8000077616974203230207365636F6E6473DD
:1015C8000053656C656374206D6F6465203A003064
:1015D8003A41646D696E20313A47756573740057F6
:1015E800726F6E6720696E7075742E0041646D6944
:1015F8006E206D6F646500456E746572205061736E
:10160800733A005269676874207061737300577287
:101618006F6E672050617373005472696573206C34
:101628006566743A004775657374206D6F6465006C
:10163800456E74657220706173733A0057726F6EED
:1016480067207061737300313A526F6F6D312032C9
:101658003A526F6F6D3200333A526F6F6D332034E8
:101668003A4D6F72652000333A526F6F6D332034F4
:101678003A526F6F6D340057726F6E6720696E70E3
:10168800757400313A526F6F6D3420323A526F6F71
:101698006D3520202000333A545620202020343A3B
:1016A8004D4F524500313A41495220434F4E442054
:1016B800323A5245542000313A5365742074656DAE
:1016C80070657261747572652000323A436F6E748A
:1016D800726F6C2020303A52455400536574207460
:1016E800656D702E3A5F5F200054656D706572619C
:1016F800747572652053656E7400526F6F6D31207A
:10170800533A00526F6F6D3220533A00526F6F6D2B
:101718003320533A00526F6F6D3420533A00526FA2
:101728006F6D3520533A00545620533A0041697280
:1017380020436F6E642E20533A004F4E004F4646AA
:1017480000312D4F6E20322D4F666620302D5245C8
:0217580054003B
:00000001FF
