S0170000444F4F5220414E44204741524147452E737265631F
S11300000C942A000C943F000C943F000C943F0085
S11300100C943F000C943F000C943F000C943F0060
S11300200C943F000C943F000C943F000C943F0050
S11300300C943F000C943F000C943F000C943F0040
S11300400C943F000C943F000C943F000C943F0030
S11300500C943F0011241FBECFE5D8E0DEBFCDBF16
S113006010E0A0E6B0E0EAE8F7E002C005900D92E7
S1130070A23AB107D9F70E9491010C94C3030C94DE
S11300800000823419F118F4813439F0089583346E
S1130090B1F1843409F44CC00895413059F42AB3C1
S11300A081E090E002C0880F991F6A95E2F7822BE5
S11300B08ABB08952AB381E090E002C0880F991F9B
S11300C06A95E2F7809582238ABB0895413059F4FA
S11300D027B381E090E002C0880F991F6A95E2F788
S11300E0822B87BB089527B381E090E002C0880F7C
S11300F0991F6A95E2F78095822387BB0895413062
S113010059F424B381E090E002C0880F991F6A95E6
S1130110E2F7822B84BB089524B381E090E002C00F
S1130120880F991F6A95E2F78095822384BB08950E
S1130130413059F421B381E090E002C0880F991F47
S11301406A95E2F7822B81BB089521B381E090E0A8
S113015002C0880F991F6A95E2F78095822381BBBC
S11301600895823419F118F4813439F008958334F0
S1130170B1F1843409F44CC00895413059F42BB3DF
S113018081E090E002C0880F991F6A95E2F7822B04
S11301908BBB08952BB381E090E002C0880F991FB8
S11301A06A95E2F7809582238BBB0895413059F418
S11301B028B381E090E002C0880F991F6A95E2F7A6
S11301C0822B88BB089528B381E090E002C0880F99
S11301D0991F6A95E2F78095822388BB0895413080
S11301E059F425B381E090E002C0880F991F6A9505
S11301F0E2F7822B85BB089525B381E090E002C02D
S1130200880F991F6A95E2F78095822385BB08952C
S1130210413059F422B381E090E002C0880F991F65
S11302206A95E2F7822B82BB089522B381E090E0C5
S113023002C0880F991F6A95E2F78095822382BBDA
S113024008958234E9F018F4813431F055C08334D0
S113025059F18434E9F150C049B381E090E09C0144
S1130260062E02C0220F331F0A94E2F7842F90E077
S11302708223932302C0959587956A95E2F70895A2
S113028046B381E090E09C01062E02C0220F331F8A
S11302900A94E2F7842F90E08223932302C0959579
S11302A087956A95E2F7089543B381E090E09C0155
S11302B0062E02C0220F331F0A94E2F7842F90E027
S11302C08223932302C0959587956A95E2F7089552
S11302D040B381E090E09C01062E02C0220F331F40
S11302E00A94E2F7842F90E08223932302C0959529
S11302F087956A95E2F7089580E00895823459F06D
S113030018F4813431F00895833439F0843439F0A9
S113031008956BBB089568BB089565BB089562BBDF
S113032008950E94040280E690E00E947D0261E04C
S113033082E00E94940281E790E00E947D02C0E086
S113034060E084E40E9421018130D9F4C11119C014
S11303506BE00E9494020E948A0281E890E00E946D
S11303607D0261E082E00E9494028DE890E00E94A8
S11303707D026FEE7FEF8FE79FE30E94B502C1E03D
S1130380DFCF8111DDCFC130D9F60E948A0281E826
S113039090E00E947D0261E082E00E94940286E97E
S11303A090E00E947D0268EF7FEF8FEB9FE30E9455
S11303B0B502C0E0C5CF41E060E082E40E94B10034
S11303C083EF91E00197F1F700C0000040E060E0A6
S11303D082E40E94B10083EF91E00197F1F700C03D
S11303E000000895682F81E40E947E0140E061E0EE
S11303F082E40E94B1000E94DB0189EF90E0019742
S1130400F1F700C0000008958FE493EC0197F1F731
S113041000C0000041E060E081E40E94410041E04E
S113042061E081E40E94410041E062E081E40E94D5
S1130430410041E063E081E40E94410041E064E066
S113044081E40E94410041E065E081E40E944100B2
S113045041E066E081E40E94410041E067E081E41C
S11304600E94410041E060E082E40E94410041E0DA
S113047062E082E40E94410041E061E082E40E9483
S1130480410040E062E082E40E94B10088E30E94FF
S1130490F20189EF90E00197F1F700C000008EE0CF
S11304A00E94F20189EF90E00197F1F700C000008B
S11304B081E00E94F20183EC99E00197F1F700C01A
S11304C0000086E00E94F20189EF90E00197F1F7C5
S11304D000C000000895682F81E40E947E0141E07D
S11304E061E082E40E94B1000E94DB0189EF90E0A8
S11304F00197F1F700C000000895CF93DF93EC015A
S113050003C00E946B02219688818111FACFDF918A
S1130510CF91089581E00E94F20183EC99E0019764
S1130520F1F700C0000008959FEF980F923070F427
S1130530613170F4662371F0813019F42FE7260FCE
S11305400AC0823041F42FEB260F05C020E803C017
S113055020E801C020E8822F0E94F20189EF90E098
S11305600197F1F700C00000089521B3206121BB79
S11305702FB522602FBD2EB528602EBD2EB520616B
S11305802EBD20E030E04AE754E40E942E030E948E
S1130590D60279BD68BD8FE19EE497BD86BD8EB558
S11305A081608EBD8FB580628FBD08950E940D035A
S11305B088F09F5798F0B92F9927B751B0F0E1F020
S11305C0660F771F881F991F1AF0BA95C9F714C0D0
S11305D0B13091F00E942703B1E008950C942703F1
S11305E0672F782F8827B85F39F0B93FCCF3869509
S11305F077956795B395D9F73EF490958095709566
S113060061957F4F8F4F9F4F089557FD9058440F2A
S1130610551F59F05F3F71F04795880F97FB991F5D
S113062061F09F3F79F0879508951216130614061A
S1130630551FF2CF4695F1DF08C0161617061806A7
S1130640991FF1CF86957105610508940895E89482
S1130650BB2766277727CB0197F908950E944103AA
S11306600C94B2030E94A40338F00E94AB0320F060
S1130670952311F00C949B030C94A10311240C9466
S113068028030E94050370F3959FC1F3950F50E072
S1130690551F629FF001729FBB27F00DB11D639F30
S11306A0AA27F00DB11DAA1F649F6627B00DA11DD6
S11306B0661F829F2227B00DA11D621F739FB00D7C
S11306C0A11D621F839FA00D611D221F749F3327EC
S11306D0A00D611D231F849F600D211D822F762F85
S11306E06A2F11249F5750409AF0F1F088234AF062
S11306F0EE0FFF1FBB1F661F771F881F91505040CE
S1130700A9F79E3F510580F00C949B030C94280399
S11307105F3FE4F3983ED4F3869577956795B79554
S1130720F795E7959F5FC1F7FE2B880F911D96956E
S1130730879597F9089597F99F6780E870E060E0DE
S113074008959FEF80EC089500240A941616170666
S113075018060906089500240A94121613061406AE
S113076005060895092E0394000C11F4882352F011
S1130770BB0F40F4BF2B11F460FF04C06F5F7F4FC9
S10D07808F4F9F4F0895F894FFCFA8
S113078A202077656C636F6D6520686F6D65202026
S113079A0020202A2A2A2A7369722A2A2A2A20202D
S11307AA0074686520646F6F72206973006F7065E6
S11307BA6E2073697200636C6F7365642073697267
S10507CA000029
S9030000FC
